{
  "contractName": "Subscription",
  "abi": [
    {
      "constant": true,
      "inputs": [],
      "name": "priceETHUSD",
      "outputs": [
        {
          "name": "",
          "type": "uint256"
        }
      ],
      "payable": false,
      "stateMutability": "view",
      "type": "function"
    },
    {
      "constant": true,
      "inputs": [],
      "name": "owner",
      "outputs": [
        {
          "name": "",
          "type": "address"
        }
      ],
      "payable": false,
      "stateMutability": "view",
      "type": "function"
    },
    {
      "inputs": [],
      "payable": false,
      "stateMutability": "nonpayable",
      "type": "constructor"
    },
    {
      "anonymous": false,
      "inputs": [],
      "name": "PriceQuery",
      "type": "event"
    },
    {
      "anonymous": false,
      "inputs": [
        {
          "indexed": false,
          "name": "price",
          "type": "uint256"
        }
      ],
      "name": "Price",
      "type": "event"
    },
    {
      "anonymous": false,
      "inputs": [
        {
          "indexed": false,
          "name": "email",
          "type": "string"
        },
        {
          "indexed": false,
          "name": "priceETHUSD",
          "type": "uint256"
        },
        {
          "indexed": false,
          "name": "blockNumber",
          "type": "uint256"
        },
        {
          "indexed": false,
          "name": "blockTimestamp",
          "type": "uint256"
        }
      ],
      "name": "Registered",
      "type": "event"
    },
    {
      "constant": false,
      "inputs": [
        {
          "name": "result",
          "type": "uint256"
        }
      ],
      "name": "callback",
      "outputs": [],
      "payable": false,
      "stateMutability": "nonpayable",
      "type": "function"
    },
    {
      "constant": false,
      "inputs": [],
      "name": "update",
      "outputs": [],
      "payable": false,
      "stateMutability": "nonpayable",
      "type": "function"
    },
    {
      "constant": true,
      "inputs": [],
      "name": "getPrice",
      "outputs": [
        {
          "name": "",
          "type": "uint256"
        }
      ],
      "payable": false,
      "stateMutability": "view",
      "type": "function"
    },
    {
      "constant": false,
      "inputs": [
        {
          "name": "email",
          "type": "string"
        }
      ],
      "name": "subscribe",
      "outputs": [],
      "payable": true,
      "stateMutability": "payable",
      "type": "function"
    },
    {
      "constant": false,
      "inputs": [],
      "name": "kill",
      "outputs": [],
      "payable": false,
      "stateMutability": "nonpayable",
      "type": "function"
    }
  ],
  "bytecode": "0x608060405234801561001057600080fd5b50336000806101000a81548173ffffffffffffffffffffffffffffffffffffffff021916908373ffffffffffffffffffffffffffffffffffffffff16021790555061006861006d640100000000026401000000009004565b61009b565b7f401b7bcc1956ac4a30ab6c0b7764e4e1e206feeff940f1f563a3070d0d392f2c60405160405180910390a1565b61049b806100aa6000396000f300608060405260043610610083576000357c0100000000000000000000000000000000000000000000000000000000900463ffffffff16806341c0e1b514610088578063507e78881461009f57806358ed766d146100fb5780638da5cb5b1461012657806398d5fdca1461017d578063a2e62045146101a8578063ff585caf146101bf575b600080fd5b34801561009457600080fd5b5061009d6101ec565b005b6100f9600480360381019080803590602001908201803590602001908080601f0160208091040260200160405190810160405280939291908181526020018383808284378201915050505050509192919290505050610310565b005b34801561010757600080fd5b506101106103c9565b6040518082815260200191505060405180910390f35b34801561013257600080fd5b5061013b6103cf565b604051808273ffffffffffffffffffffffffffffffffffffffff1673ffffffffffffffffffffffffffffffffffffffff16815260200191505060405180910390f35b34801561018957600080fd5b506101926103f4565b6040518082815260200191505060405180910390f35b3480156101b457600080fd5b506101bd6103fe565b005b3480156101cb57600080fd5b506101ea6004803603810190808035906020019092919050505061042c565b005b6000809054906101000a900473ffffffffffffffffffffffffffffffffffffffff1673ffffffffffffffffffffffffffffffffffffffff163373ffffffffffffffffffffffffffffffffffffffff161415156102d6576040517f08c379a00000000000000000000000000000000000000000000000000000000081526004018080602001828103825260298152602001807f6f6e6c7920636f6e7472616374206f776e65722063616e206b696c6c2074686581526020017f20636f6e7472616374000000000000000000000000000000000000000000000081525060400191505060405180910390fd5b6000809054906101000a900473ffffffffffffffffffffffffffffffffffffffff1673ffffffffffffffffffffffffffffffffffffffff16ff5b7f39b26c5c134162e56d559d7fdc87d9a63ef63c23b739bc1a6033d41fad6425dd8160015443426040518080602001858152602001848152602001838152602001828103825286818151815260200191508051906020019080838360005b8381101561038957808201518184015260208101905061036e565b50505050905090810190601f1680156103b65780820380516001836020036101000a031916815260200191505b509550505050505060405180910390a150565b60015481565b6000809054906101000a900473ffffffffffffffffffffffffffffffffffffffff1681565b6000600154905090565b7f401b7bcc1956ac4a30ab6c0b7764e4e1e206feeff940f1f563a3070d0d392f2c60405160405180910390a1565b806001819055507f63f32f63810afda7c9be9643f9fa73ee3f39a9fd8bb35775a2b0d73e48ed9bed6001546040518082815260200191505060405180910390a1505600a165627a7a72305820550b83a58ca7b17126a63ad6a081a6640665dd2fdfd39db34cb8a9ebe2bd91590029",
  "source": "/*\n   Subscription service contract with ETH/USD price ticker oracle.\n   The contract is designed to be used by a corresponding dApp for managing \n   subscription update reminders\n   This contract keeps in storage an updated ETH/USD price used for charging\n   subscriptions at current ETHUSD rate, which is updated by the oracle\n   every ~60 seconds\n*/\npragma solidity ^0.4.24;\n\ncontract Subscription {\n  // Contract owner\n  address public owner;\n  // current conversion rate\n  uint public priceETHUSD;\n\n\n  // event\n  event PriceQuery();\n  event Price(uint price);\n  event Registered(string email, uint priceETHUSD, uint blockNumber, uint blockTimestamp);\n\n\n  constructor() public {\n      owner = msg.sender;\n      update();\n  }\n\n\n  // used by oracle to send in current conversion rate priceETHUSD\n  function callback(uint result) public {\n      priceETHUSD = result;\n      emit Price(priceETHUSD);\n  }\n\n  function update() public {\n      // trigger event\n      emit PriceQuery();\n  }\n\n  function getPrice() public view returns (uint) {\n      return priceETHUSD;\n  }\n\n\n  function subscribe(string email) public payable{\n      // trigger event\n      emit Registered(email, priceETHUSD, block.number, block.timestamp);\n  }\n\n  function kill() external {\n      require(msg.sender == owner, 'only contract owner can kill the contract');\n      selfdestruct(owner);\n  }\n\n}\n",
  "sourcePath": "C:\\public\\blockchain\\dApps\\subscription\\contracts\\Subscription.sol",
  "compiler": {
    "name": "solc",
    "version": "0.4.24+commit.e67f0147.Emscripten.clang"
  },
  "schemaVersion": "2.0.0",
  "updatedAt": "2018-08-06T16:30:45.467Z"
}